:020000003B2C97
:0E000600533083120313FD00FD0B0728080082
:10001400243083120313FC00B530FD00FD0B1028BF
:0A002400FC0B10280000000008008B
:0C002E00000000000000000000000800BE
:10003A0083160313D11B24288312861126288312C0
:10004A0086158316511B2C28831206112E2883121B
:10005A0006158316D11A342883128610362883127D
:10006A0086148316511A3C28831206103E288312DE
:10007A0006143F1842280616432806128616172029
:10008A0086128316D1194C28831286114E288312A0
:10009A00861583165119542883120611562883127D
:1000AA0006158316D1185C28831286105E288312DF
:1000BA008614831651186428831206106628831240
:1000CA0006143F186A2806166B2806128616172089
:0E00DA0086123F1C72280A207328032008009B
:1000E80083120313FB01FA01F901F801A001730D52
:1000F800F80D7408F8027508031C750FF9027608E4
:10010800031C760FFA027708031C770FFB02000125
:10011800031C0130A002F30D0730FC00730DF80D2D
:10012800F90DFA0DFB0DA00D7408731CAD28F8022B
:100138007508031C750FF9027608031C760FFA027E
:100148007708031C770FFB020001031C0130A00293
:10015800BE28F80775080318750FF90776080318FD
:10016800760FFA0777080318770FFB0700010318C3
:100178000130A007F30DFC0B9228720DF80DF90D54
:10018800FA0DFB0DA00D7408731CDC28F802750825
:10019800031C750FF9027608031C760FFA0277081C
:1001A800031C770FFB020001031C0130A002ED289D
:1001B800F80775080318750FF90776080318760FFE
:1001C800FA0777080318770FFB07000103180130B7
:1001D800A007F20D0730FC00720DF80DF90DFA0DAD
:1001E800FB0DA00D7408721C0B29F8027508031C7E
:1001F800750FF9027608031C760FFA027708031CBC
:10020800770FFB020001031C0130A0021C29F8072C
:1002180075080318750FF90776080318760FFA079B
:1002280077080318770FFB07000103180130A007B0
:10023800F20DFC0BF028710DF80DF90DFA0DFB0D00
:10024800A00D7408721C3A29F8027508031C750F72
:10025800F9027608031C760FFA027708031C770F59
:10026800FB020001031C0130A0024B29F8077508A6
:100278000318750FF90776080318760FFA07770839
:100288000318770FFB07000103180130A007F10DD1
:100298000730FC00710DF80DF90DFA0DFB0DA00DDE
:1002A8007408711C6929F8027508031C750FF90296
:1002B8007608031C760FFA027708031C770FFB02F7
:1002C8000001031C0130A0027A29F80775080318F9
:1002D800750FF90776080318760FFA0777080318D9
:1002E800770FFB07000103180130A007F10DFC0B85
:1002F8004E29700DF80DF90DFA0DFB0DA00D7408BF
:10030800711C9829F8027508031C750FF902760804
:10031800031C760FFA027708031C770FFB02000113
:10032800031C0130A002A929F80775080318750FE6
:10033800F90776080318760FFA0777080318770F76
:10034800FB07000103180130A007F00D0730FC007F
:10035800700DF80DF90DFA0DFB0DA00D7408701C49
:10036800C729F8027508031C750FF9027608031CE3
:10037800760FFA027708031C770FFB020001031CB3
:100388000130A002D829F80775080318750FF90776
:1003980076080318760FFA0777080318770FFB0714
:1003A800000103180130A007F00DFC0BAC297018F0
:1003B800EB297408F80775080318750FF90776080C
:1003C8000318760FFA0777080318770FFB0708005A
:1003D800831603138612061206108610061186115C
:1003E80083128612061286110611861006100A203C
:1003F8000A200A20861406148616172086120A2058
:100408008616172086120A208616172086120A20BA
:1004180006108616172086120A20861617208612BE
:10042800861086158616172086120A20861106144D
:1004380086161720861206108616172086120A209E
:1004480086161720861206148616172086120A208A
:1004580006108616172086128615061586140614A9
:0C0468008616172086120A203F14080098
:0E047400831203133E088A003D088200080030
:10048200831203133F1083164908D1001D203F1425
:02049200080060
:1004940083160313CE01CF0100304F02031D542AEB
:1004A4000A304E0203185F2A4E084D07840020309C
:1004B4008000CE0A0319CF0A4E2A4E084D07840045
:1004C40080010130CE02031CCF034E084D07D0003B
:1004D4000A30F400F501F601F7014908F0004A0872
:1004E400F1004B08F2004C08F30074207808F00087
:1004F4007908F1007A08F2007B08F3003030F00745
:10050400831650088400700880000A30F400F50156
:10051400F601F7014908F0004A08F1004B08F2001F
:100524004C08F300742070088316C9007108CA00CF
:100534007208CB007308CC000030F4007306031D6E
:10054400AD2A74087206031DAD2A74087106031DD2
:10055400AD2A7008003A031DB02AB52A0130CE0234
:08056400031CCF03672A080005
:10056C00831203136E08F1000130F00071080319B7
:10057C00C32AF00D7010FF3EBD2AF00970088805E3
:10058C000330FD00FD0BC82A6E08F1000130F000AD
:10059C0071080319D52AF00D7010FF3ECF2A700890
:1005AC0088041030FD00FD0BD92A00006E08F10004
:1005BC000130F00071080319E72AF00D7010FF3EAE
:1005CC00E12AF009700888056F08F2000130F0008C
:1005DC000030F10072080319F82AF00DF10D7010BB
:1005EC00FF3EF12A0808F0050030F105700871048F
:1005FC00031D012BEA2A103090008F018E0110147C
:10060C006F08F2000130F0000030F100720803199D
:10061C00142BF00DF10D7010FF3E0D2B0808F0059A
:10062C000030F1057008710403191D2B062B1010F6
:10063C000F08F100F00170080E048316BE000030A4
:10064C007104BF000030C000C1003A30F400F50165
:10065C00F601F7013E08F0003F08F1004008F200F7
:08066C004108F30074200800AE
:100674004C2B803083160313BE005F2BC030BE00AA
:100684005F2B9430BE005F2BD430BE005F2B8030D4
:10069400BE005F2B831603133E08013A03193B2B5C
:1006A4003E08023A0319402B3E08033A0319432B30
:1006B4003E08043A0319462B492B3F03F0003E0839
:1006C400F0077008BE007008D1001D203F10EE0135
:1006D4006E08831640078400000803197B2B8312DD
:1006E4006E088316400784000008C9004122EE0A00
:0806F4006A2B83123F14080079
:1006FC0083160313C301C4013E08C5003F08C6009E
:10070C004008C7004108C80080304106F000803026
:10071C007002031D9B2B00304002031D9B2B0030ED
:10072C003F02031D9B2B00303E020318C32B0130EC
:10073C00C3000030C400F401F501F601F7013E08D6
:10074C00F0003F08F1004008F2004108F300740883
:10075C00C5007508C6007608C7007708C800700881
:10076C00C5027108031C710FC6027208031C720FBC
:10077C00C7027308031C730FC8024508C90046085A
:10078C00CA004708CB004808CC004208CD004A22DA
:10079C000B308312EE000030EF006F08003C031D9D
:1007AC00D92B6E08003C0318F82B6E0883164207F1
:1007BC00F200013083126E02F0000030031C013E87
:1007CC006F02F10070088316420784000008F000E5
:1007DC00720884007008800001308312EE02031C42
:1007EC00EF03D32B8316420884002030800043088B
:1007FC00440403191C2C8312EE01EF016E088316BE
:10080C00420784000008203A031D112C8312EE0AC3
:10081C000319EF0A042C83120130EE02031CEF03C0
:0E082C006E088316420784002D3080000800FD
:10083A00AA3083160313880007309F00EC21013089
:10084A008316D1001D200C308316D1001D2083167B
:04085A00870108000A
:10085E003A228A110A128000840ABD0A0319BE0ABE
:08086E00F003031D2F2C08000C
:10087600443083120313A1003430A2003A30A3009F
:10088600A4016330A5006D30A600A7014430A8007E
:100896003330A9003A30AA00AB016330AC006D30AA
:1008A600AD00AE016330AF006D30B000B101443031
:1008B600B2003130B3003A30B400B5016330B6004F
:1008C6006D30B700B8014430B9003230BA003A3062
:1008D600BB00BC011D248312EE010130EF00B622DD
:1008E6007008C0007108C100C201C3010230EE00E9
:1008F6000330EF00B6227008C4007108C500C601B7
:10090600C7010430EE000530EF00B6227008C800BB
:100916007108C900CA01CB010630EE000730EF00AE
:10092600B6227008CC007108CD00CE01CF01803010
:10093600F000803043067002031DAB2C4208003CD9
:10094600031DAB2C4108003C031DAB2C4008323C78
:100956000318E72C8030F000803047067002031D34
:10096600BE2C4608003C031DBE2C4508003C031D5A
:10097600BE2C4408323C0318E72C8030F00080304F
:100986004B067002031DD12C4A08003C031DD12CD6
:100996004908003C031DD12C4808323C0318E72CBB
:1009A6008030F00080304F067002031DE42C4E08A4
:1009B600003C031DE42C4D08003C031DE42C4C08B0
:1009C600323C0318E72CEA2CFF308700EB2C87011A
:1009D600C30CC20CC10CC00CC313431BC317C31FEB
:1009E600FD2C031CFD2CC00A0319C10A0319C20AF7
:1009F6000319C30AC70CC60CC50CC40CC713471B86
:100A0600C717C71F0F2D031C0F2DC40A0319C50ACC
:100A16000319C60A0319C70ACB0CCA0CC90CC80CA1
:100A2600CB134B1BCB17CB1F212D031C212DC80A23
:100A36000319C90A0319CA0A0319CB0ACF0CCE0C2B
:100A4600CD0CCC0CCF134F1BCF17CF1F332D031C50
:100A5600332DCC0A0319CD0A0319CE0A0319CF0A7E
:100A660001308316D1001D2040088316BE00831274
:100A760041088316BF00831242088316C000831202
:100A860043088316C1005030C2007E2383124408F7
:100A96008316BE00831245088316BF0083124608DC
:100AA6008316C000831247088316C1005F30C20058
:100AB6007E23831248088316BE00831249088316D4
:100AC600BF0083124A088316C00083124B088316A0
:100AD600C100A030C2007E2383124C088316BE00DC
:100AE60083124D088316BF0083124E088316C0007A
:100AF60083124F088316C100AF30C2007E23013037
:100B0600BE000130BF005030C0003A2301308316CA
:100B1600BE000130BF003230C0003A2301308316D8
:100B2600BE000F30BF003630C0003A2302308316B5
:100B3600BE000130BF005F30C0003A23023083168A
:100B4600BE000130BF003930C0003A2302308316A0
:100B5600BE000F30BF002F30C0003A23033083168B
:100B6600BE000130BF00A030C0003A230330831618
:100B7600BE000130BF002830C0003A230330831680
:100B8600BE000F30BF002530C0003A230430831664
:100B9600BE000130BF00AF30C0003A2304308316D8
:100BA600BE000130BF002130C0003A230430831656
:100BB600BE000F30BF002C30C0003A231A30FB00B5
:100BC6005E30FC006E30FD00FD0BE72DFC0BE72DC3
:0A0BD600FB0BE72D00006E2CEF2D45
:02400E004A2F37
:00000001FF
